:100F080041000300410002004200180000420000B6
:0C0F1800000042001A000042002C000003
:1006EE009000681204460000000090006C12044650
:1006FE00000000007F007E007D007C00120D0F12B6
:10070E000F97120F58120F7F120F6F120F252080A6
:10071E00249000681204464220000090006C1204DF
:10072E00463E6B851F7D20120D0990002CE4F0A330
:10073E007450F080482081229000681204464234A2
:10074E00000090006C1204463E4CCCCD120D07906A
:10075E00002CE4F0A37446F080232084B19000684E
:10076E001204464234000090006C1204463E4CCCFB
:10077E00CD120D0790002CE4F0A37463F0E4FF1289
:10078E000C7690000C12043A7F02120C7690001038
:10079E0012043A7F01120C7690001412043A900063
:1007AE0010E0FCA3E0FDA3E0FEA3E0FF90006812C2
:1007BE00043A90000CE0FCA3E0FDA3E0FEA3E0FFF2
:1007CE00120808E4FFFE7DAF7C43900014E0F8A30E
:1007DE00E0F9A3E0FAA3E0FB1202AC600C400A9031
:1007EE00001AE4F0A304F08007E490001AF0A3F0DE
:0A07FE00900003E0D3940140842230
:100BBD00E4FFFE7D207C4190002EE0F8A3E0F9A338
:100BCD00E0FAA3E0FB1202AC502E7F0A7ED77D2304
:100BDD007C3E90002EE0F8A3E0F9A3E0FAA3E0FB41
:100BED00120106A804A905AA06AB077F9A7E997D76
:100BFD00397C41120011800E90002EE0FCA3E0FD27
:100C0D00A3E0FEA3E0FF90000412043AE4FFFE7D92
:100C1D00207C41900032E0F8A3E0F9A3E0FAA3E0D4
:100C2D00FB1202AC502E7F0A7ED77D237C3E9000B6
:100C3D0032E0F8A3E0F9A3E0FAA3E0FB120106A865
:100C4D0004A905AA06AB077F9A7E997D397C4112CE
:100C5D000011800E900032E0FCA3E0FDA3E0FEA3A6
:090C6D00E0FF90000812043A2295
:100F6F00E4F59475931375CA20F5C9C2CDC2B222A8
:070F9700C288D2A8D2AF22EC
:100F5800438E805389F0758AA0758CF6C28DD28C29
:070F6800D2AFD2A9D28C2206
:100F2500759850438E40538EFE53890F758BCC7543
:0B0F35008DFFC2ABD28ED2ACD2AF2237
:080D07007D347F007E007C4278
:100D0F0090006412043A90001C1204460000000088
:100D1F0090002012044600000000900028120446A4
:100D2F000000000090006CE0FCA3E0FDA3E0FEA338
:100D3F00E0FF90002412043A900064E0FCA3E0FD71
:100D4F00A3E0FEA3E0FF90002E12043A900068E0AB
:100D5F00FCA3E0FDA3E0FEA3E0FF90003212043AF3
:100D6F00900064E0FCA3E0FDA3E0FEA3E0FF900091
:100D7F000412043A900068E0FCA3E0FDA3E0FEA398
:080D8F00E0FF90000802043AA5
:1008080090006412043A90001CE0FCA3E0FDA3E011
:10081800FEA3E0FFA312043A900068E0F8A3E0F911
:10082800A3E0FAA3E0FB900064E0FCA3E0FDA3E0F2
:10083800FEA3E0FF12001190001C12043A90002061
:10084800E0F8A3E0F9A3E0FAA3E0FB90001CE0FCC9
:10085800A3E0FDA3E0FEA3E0FF120011900024E056
:10086800F8A3E0F9A3E0FAA3E0FB12010690002840
:1008780012043A90002EE0FCA3E0FDA3E0FEA3E002
:10088800FFC004C005C006C007E4FBFAF978409031
:100898000028E0FCA3E0FDA3E0FEA3E0FF12020FA6
:1008A800A804A905AA06AB07D007D006D005D0042E
:1008B80012001190002E12043A900032E0F8A3E0E2
:1008C800F9A3E0FAA3E0FBC000C001C002C003E442
:1008D800FBFAF97840900028E0FCA3E0FDA3E0FED5
:1008E800A3E0FF12020FD003D002D001D000120003
:0A08F8001590003212043A020BBD05
:03000300020E23C7
:100E2300C0E0C0F0C083C082C0D075D000C000C095
:100E330001C002C003C004C005C006C00730B2161B
:100E4300120F8E30B210900002E0700AA3E004F09B
:100E5300E0B40202D2CDA2B2E433900002F0D00794
:100E6300D006D005D004D003D002D001D000D0D01A
:090E7300D082D083D0F0D0E0322F
:03000B0002059A51
:10059A00C0E0C0F0C083C082C0D075D000C000C027
:1005AA0001C002C003C004C005C006C007900018FD
:1005BA00E07004A3E064647006900018F0A3F09061
:1005CA00002CE0FEA3E0FF4E604390001AE07002A8
:1005DA00A3E06039C3900019E09FEE6480F89000B0
:1005EA0018E06480985013D2A3D2A1C2A2C2A0D2AA
:1005FA00A6D2A4C2A7C2A50206C5C2A2C2A3C2A00D
:10060A00C2A1C2A7C2A6C2A5C2A40206C59000186A
:10061A00E0FCA3E0FDEC12032A900008E0F8A3E056
:10062A00F9A3E0FAA3E0FB1202AC6030402EE4FF2B
:10063A00FE7D207C41900032E0F8A3E0F9A3E0FAC5
:10064A00A3E0FB1202AC500AC2A6C2A4D2A7D2A54A
:10065A008012D2A6D2A4C2A7C2A58008C2A7C2A6E7
:10066A00C2A5C2A4900018E0FCA3E0FDEC12032A84
:10067A00900004E0F8A3E0F9A3E0FAA3E0FB120279
:10068A00AC6030402EE4FFFE7D207C4190002EE0DD
:10069A00F8A3E0F9A3E0FAA3E0FB1202AC500AC205
:1006AA00A3C2A1D2A2D2A08012D2A3D2A1C2A2C2B4
:1006BA00A08008C2A2C2A3C2A0C2A1900019E004ED
:1006CA00F07006900018E004F0D007D006D005D0EC
:1006DA0004D003D002D001D000D0D0D082D083D0B1
:0406EA00F0D0E0323A
:05090200900057EFF02A
:10090700A3E0FCA3E0FDA3E0FEA3E0FF12036390D6
:10091700005CEEF0A3EFF0900057E0FF120F4F7F5F
:1009270050120F4F7F57120F4F7F4D120F4F7F20DF
:10093700120F4F900057E0B44C1CE4FFFE7D207C63
:100947004190002EE0F8A3E0F9A3E0FAA3E0FB1240
:1009570002AC5020801AE4FFFE7D207C41900032DB
:10096700E0F8A3E0F9A3E0FAA3E0FB1202AC50041D
:100977007F2D80027F2B120F4F90005CE0FAA3E0DF
:10098700FB7C007D64FFAE021203F67C007D0A1239
:1009970003F6A3ECF0A3EDF07C007D0AAF03AE02F3
:1009A7001203F67C007D0A1203F6A3ECF0A3EDF028
:1009B70090005CE0FEA3E0FF7C007D0A1203F69046
:1009C7000062ECF0A3EDF090005EA3E02430FF128C
:1009D7000F4F900060A3E02430FF120F4F9000628A
:1009E700A3E02430FF120F4F7F61120F4F7F0A02DF
:0209F7000F4FA0
:1009F90090004BE0F8A3E0F9A3E0FAA3E0FB1200B2
:100A09001112036390004FEEF0A3EFF07F44120F31
:100A19004F7F65120F4F7F72120F4F7F74120F4F66
:100A29007F20120F4F90004FE0FEA3E0FFC3EE645A
:100A39008094805011C3E49FFFE49E90004FF0A37F
:100A4900EFF07F2D801190004FE0FFA3E090004F61
:100A5900CFF0A3EFF07F2B120F4F90004FE0FAA3D6
:100A6900E0FB7C007D64FFAE021203F67C007D0A88
:100A79001203F6A3ECF0A3EDF07C007D0AAF03AE00
:100A8900021203F67C007D0A1203F6A3ECF0A3ED33
:100A9900F090004FE0FEA3E0FF7C007D0A1203F610
:100AA900900055ECF0A3EDF0900051A3E02430FF45
:100AB900120F4F900053A3E02430FF120F4F900004
:100AC90055A3E02430FF120F4F7F61120F4F7F0AA9
:030AD900020F4FBA
:080F8E007F187E55DEFEDFFC3A
:010F96002238
:100EC000EF44E8F5BC00000000E5BC30E4FB53BC97
:100ED000EFAFBD7E007C007D321203E4AC06AD07AF
:050EE000E412032A22C8
:050C7600900064EFF0A6
:100C7B009000671204460000000090006B120446BF
:100C8B0000000000E4900065F0A3F0900064E0FF2A
:100C9B00120EC090006712043A90006BE0FCA3E0C8
:100CAB00FDA3E0FEA3E0FF900067E0F8A3E0F9A34B
:100CBB00E0FAA3E0FB1202AC60144012900067E074
:100CCB00FCA3E0FDA3E0FEA3E0FFA312043A900017
:100CDB0066E004F07006900065E004F0C3900066D7
:100CEB00E09405900065E064809480409E90006BDA
:0B0CFB00E0FCA3E0FDA3E0FEA3E0FF8F
:010D060022CA
:0F0F7F00759DFFE4F5BD75BCE07F0AFE020EE52F
:0F0F4000A3A3E02430FF120F4FA3A3E02430FF40
:090F4F00EFF5993099FDC29922D9
:050ADC00900036EFF070
:100AE100A3E0FCA3E0FDA3E0FEA3E0FF12036390FB
:100AF100003BEEF0A3EFF090003BE0FEA3E0FFEE41
:100B01003395E0FDFC7BA07A8679017800120E7C9A
:100B1100E47B0AFAF9F8120E7CAF0390003DEAF08B
:100B2100A3EFF090003BE0FAA3E0FB7C037DE8FF3C
:100B3100AE021203F67C007D0A1203F690003FEC30
:100B4100F0A3EDF07C007D64AF03AE021203F67CEE
:100B5100007D0A1203F6A3ECF0A3EDF090003BA395
:100B6100E07C007D0AFFAE021203F67C007D0A12D2
:100B710003F6900043ECF0A3EDF07C007D0AAF0397
:100B8100AE021203F6A3ECF0A3EDF0900036E0FF05
:100B9100120F4F7F41120F4F7F44120F4F1F120F41
:100BA1004F7F20120F4F90003D120F4A120F40123B
:0C0BB1000F407F61120F4F7F0A020F4FB0
:040EE500AB07AA06A7
:100EE9009000007C007D0AAF82AE831203F6C3EF47
:0E0EF9009BEA6480F8EE6480985003A380E5C5
:010F070022C7
:03000000020D9757
:0C0D9700787FE4F6D8FD758120020DDEA7
:10000E000203CFE86480F8E933E83360110460F04E
:10001E00ED33EC337009E8FCE9FDEAFEEBFF220458
:10002E0060DED3EB9FEA9EE99DE8C2E78CF0C2F753
:10003E0095F0400CE8CCF8E9CDF9EACEFAEBCFFB1F
:10004E0012039A85D0F05804700320D5B3E80470DB
:10005E00075002B2D50203D992D5EC0460F7E4CC76
:10006E00C0E0C398F8603B94186008400DD0E0FBE8
:10007E000203B1E4FBFAC9FC8028E830E406E4C9C7
:10008E00FBE4CAFCE830E305E4C9CACBFCE854073C
:10009E006010F8C3E913F9EA13FAEB13FBEC13FC47
:1000AE00D8F130F52FC3E49CFCEF9BFFEE9AFEEDEA
:1000BE0099FDD0E0FBEF4E4D4C701222DB03020394
:1000CE00D6EC2CFCEF33FFEE33FEED33FDED30E7D7
:1000DE00EB0203B1EF2BFFEE3AFEED39FDD0E0FB64
:1000EE0050130BBB00030203D9ED13FDEE13FEEF0D
:0800FE0013FFEC13FC0203B137
:10010600EC4D6011E8497017ED33EC3304600DE4F3
:10011600FCFFFEFD22E933E8330470F80203CF1238
:10012600039A58046009E4CC248150062850090239
:1001360003D92840030203D6C0E0EB4A7044B980D5
:1001460006D0E0FB0203C5EF4E701CBD8008EBFF36
:10015600EAFEE9FD80EBE98DF0A4FEE5F00201EF91
:10016600E9CDF9EAFEEBFFEF89F0A4FCE5F0CE89D4
:10017600F0A42EFFE435F0CD89F0A42DFEE435F091
:100186008067EF4E7005BD80D780C3EF8BF0A4ACBF
:10019600F0EE8BF0A42CFCE435F0F8EF8AF0A42CFA
:1001A600E5F038FCE433CB8DF0A42CFCE5F03BF80D
:1001B600EE8AF0A42CFCE5F038F8E433CF89F0A4FD
:1001C6002CFCE5F038CF3400CE89F0A42FFFE5F003
:1001D6003EFEE433C98DF0A42EFEE5F039CD8AF05B
:1001E600A42FFFE5F03EFEE43DFD33D0E0FB5007D3
:1001F6000BBB000F0203D9EC2CFCEF33FFEE33FEF2
:06020600ED33FD0203B11F
:10020C000203D9EC5D046005E8590470030203CFC6
:10021C0012039A580460F6EC4860F2EC7004FDFE90
:10022C00FF22C860DB2481C85009C39860025006C5
:10023C000203D69850CAF582E9294B4A7005AB8265
:10024C000203C575F0007C1A7880C3EF9BEE9AED23
:10025C0099400DC3EF9BFFEE9AFEED99FDE842F03D
:10026C00DC23ACF0D0E0FFD0E0FED0E0FDAB822090
:10027C00E7101BEB60BAEC2CFCEF33FFEE33FEED1A
:10028C0033FD0203B1E803F830E705C0F075F00068
:10029C00EF2FFFEE33FEED33FD40B830E7C280AAFE
:1002AC0074F8CC6480CCC86480C8F58204604FC3F9
:1002BC00EB9FF5F0EA9E42F0E99D42F0E89C45F098
:1002CC00603C501DE5825FFFE582D313CB5BCBF422
:1002DC002B5582FB50280ABA002409B9002008804B
:1002EC001DE5825BFBE582D313CF5FCFF4C3132FE5
:1002FC005582FF50090EBE00050DBD00010CC3EB6D
:10030C009FF5F0EA9E42F0E99D42F0E89C45F060D2
:09031C0007CC4820E701B3EC22F4
:1003250075F020800E75F010800575F0087D007E53
:10033500007F003392D530D50312042CEC334010E6
:10034500EF33FFEE33FEED33FDEC33FCD5F0ED225C
:0E035500E5F0247EA2D513CC92E7CDCEFF2298
:10036300EDD2E7CD33EC3392D524814006E4FFFE92
:10037300FDFC22FCE4CFCECDCC24E0501174FF80F1
:10038300EDC3CC13CCCD13CDCE13CECF13CF04708E
:07039300F030D5DE02042C5E
:10039A00E9D2E7C933E833F892D5EDD2E7CD33ECA9
:0703AA0033FC5002B2D52222
:1003B100EC30E7100FBF000C0EBE00080DBD0004AD
:1003C1000BEB6014A2D5EB13FCED92E7FD2274FF59
:1003D100FCFDFEFF22E480F8A2D574FF13FC7D80B2
:0303E100E480EFC6
:100DA3000206EEE493A3F8E493A34003F68001F272
:100DB30008DFF48029E493A3F85407240CC8C33351
:100DC300C4540F4420C8834004F456800146F6DF20
:100DD300E4800B0102040810204080900F08E47E99
:100DE300019360BCA3FF543F30E509541FFEE49315
:100DF300A360010ECF54C025E060A840B8E493A3DC
:100E0300FAE493A3F8E493A3C8C582C8CAC583CA06
:100E1300F0A3C8C582C8CAC583CADFE9DEE780BEBE
:010F240000CC
:1003E400EF8DF0A4A8F0CF8CF0A428CE8DF0A42E2D
:0203F400FE22E7
:1003F600C2D5EC30E709B2D5E4C39DFDE49CFCEE22
:1004060030E715B2D5E4C39FFFE49EFE120477C31E
:10041600E49DFDE49CFC800312047730D507C3E419
:060426009FFFE49EFE2290
:100E7C00C2D5E830E70FB2D5E4C39BFBE49AFAE4A1
:100E8C0099F9E498F8EC30E717B2D5120EB21205C6
:100E9C0008E4C39BFBE49AFAE499F9E498F880031C
:100EAC0012050830D50DE4C39FFFE49EFEE49DFDC2
:040EBC00E49CFC2294
:0E042C00C3E49FFFE49EFEE49DFDE49CFC22E1
:0C043A00ECF0A3EDF0A3EEF0A3EFF02235
:10044600A8828583F0D083D08212045D12045D12E7
:10045600045D12045DE473E493A3C583C5F0C5830C
:10046600C8C582C8F0A3C583C5F0C583C8C582C800
:010476002263
:10047700BC000BBE0029EF8DF084FFADF022E4CC69
:10048700F875F008EF2FFFEE33FEEC33FCEE9DEC32
:10049700984005FCEE9DFE0FD5F0E9E4CEFD22ED78
:1004A700F8F5F0EE8420D21CFEADF075F008EF2FC2
:1004B700FFED33FD4007985006D5F0F222C398FDB3
:0504C7000FD5F0EA2250
:1004CC0075F008758200EF2FFFEE33FECD33CDCCE7
:1004DC0033CCC58233C5829BED9AEC99E58298406A
:1004EC000CF582EE9BFEED9AFDEC99FC0FD5F0D647
:1004FC00E4CEFBE4CDFAE4CCF9A88222B800C1B971
:10050C000059BA002DEC8BF084CFCECDFCE5F0CBAE
:10051C00F97818EF2FFFEE33FEED33FDEC33FCEBE7
:10052C0033FB10D703994004EB99FB0FD8E5E4F9A2
:10053C00FA227818EF2FFFEE33FEED33FDEC33FC8F
:10054C00C933C910D7059BE99A4007EC9BFCE99A83
:10055C00F90FD8E0E4C9FAE4CCFB2275F010EF2FC8
:10056C00FFEE33FEED33FDCC33CCC833C810D707C8
:10057C009BEC9AE899400AED9BFDEC9AFCE899F803
:0E058C000FD5F0DAE4CDFBE4CCFAE4C8F92296
:00000001FF
